{
  "transactions": [
    {
      "hash": "0xabe944f748c181d72208e3a7fe99badd293fd719372cc065946f6f3a1a2999a0",
      "transactionType": "CALL",
      "contractName": null,
      "contractAddress": "0x3b284ddcf13fbac389646c888c3dc669c00914be",
      "function": "setAllowedToken(address,bool)",
      "arguments": [
        "0x078D782b760474a361dDA0AF3839290b0EF57AD6",
        "true"
      ],
      "transaction": {
        "from": "0x0d5941e6366db6ea8bcd518c9e9dc0c1c84ecd84",
        "to": "0x3b284ddcf13fbac389646c888c3dc669c00914be",
        "gas": "0x104c8",
        "value": "0x0",
        "input": "0x8aaa2284000000000000000000000000078d782b760474a361dda0af3839290b0ef57ad60000000000000000000000000000000000000000000000000000000000000001",
        "nonce": "0x3",
        "chainId": "0x82"
      },
      "additionalContracts": [],
      "isFixedGasLimit": false
    },
    {
      "hash": "0x497283084b5625074c9a50b7149e7af1e25468bf69ff7b7281bfba7b66713b6e",
      "transactionType": "CALL",
      "contractName": null,
      "contractAddress": "0x3b284ddcf13fbac389646c888c3dc669c00914be",
      "function": "setAllowedToken(address,bool)",
      "arguments": [
        "0x9151434b16b9763660705744891fA906F660EcC5",
        "true"
      ],
      "transaction": {
        "from": "0x0d5941e6366db6ea8bcd518c9e9dc0c1c84ecd84",
        "to": "0x3b284ddcf13fbac389646c888c3dc669c00914be",
        "gas": "0x104c8",
        "value": "0x0",
        "input": "0x8aaa22840000000000000000000000009151434b16b9763660705744891fa906f660ecc50000000000000000000000000000000000000000000000000000000000000001",
        "nonce": "0x4",
        "chainId": "0x82"
      },
      "additionalContracts": [],
      "isFixedGasLimit": false
    },
    {
      "hash": "0x9dcddd10cedd7ded02123f0869917e603148c28979af7c2f322a344018b83835",
      "transactionType": "CALL",
      "contractName": null,
      "contractAddress": "0x92d7074d3ae478f91d136a018fe8fa8ea53f0d17",
      "function": "setMultipleVaults(address[],bool[])",
      "arguments": [
        "[0x38f4f3B6533de0023b9DCd04b02F93d36ad1F9f9, 0x89849B6e57e1c61e447257242bDa97c70FA99b6b]",
        "[true, true]"
      ],
      "transaction": {
        "from": "0x0d5941e6366db6ea8bcd518c9e9dc0c1c84ecd84",
        "to": "0x92d7074d3ae478f91d136a018fe8fa8ea53f0d17",
        "gas": "0x19eab",
        "value": "0x0",
        "input": "0x067b95bc000000000000000000000000000000000000000000000000000000000000004000000000000000000000000000000000000000000000000000000000000000a0000000000000000000000000000000000000000000000000000000000000000200000000000000000000000038f4f3b6533de0023b9dcd04b02f93d36ad1f9f900000000000000000000000089849b6e57e1c61e447257242bda97c70fa99b6b000000000000000000000000000000000000000000000000000000000000000200000000000000000000000000000000000000000000000000000000000000010000000000000000000000000000000000000000000000000000000000000001",
        "nonce": "0x5",
        "chainId": "0x82"
      },
      "additionalContracts": [],
      "isFixedGasLimit": false
    },
    {
      "hash": "0x67d3be2e03996e8c6cfb60c3591f4a483711c61ecba0b59f0ed63fd390b6933f",
      "transactionType": "CALL",
      "contractName": null,
      "contractAddress": "0xcfe7f11016055a00a3fd0dca0d642e9538cdc490",
      "function": "setMultipleVaults(address[],bool[])",
      "arguments": [
        "[0x6eAe95ee783e4D862867C4e0E4c3f4B95AA682Ba, 0xD49181c522eCDB265f0D9C175Cf26FFACE64eAD3]",
        "[true, true]"
      ],
      "transaction": {
        "from": "0x0d5941e6366db6ea8bcd518c9e9dc0c1c84ecd84",
        "to": "0xcfe7f11016055a00a3fd0dca0d642e9538cdc490",
        "gas": "0x19eab",
        "value": "0x0",
        "input": "0x067b95bc000000000000000000000000000000000000000000000000000000000000004000000000000000000000000000000000000000000000000000000000000000a000000000000000000000000000000000000000000000000000000000000000020000000000000000000000006eae95ee783e4d862867c4e0e4c3f4b95aa682ba000000000000000000000000d49181c522ecdb265f0d9c175cf26fface64ead3000000000000000000000000000000000000000000000000000000000000000200000000000000000000000000000000000000000000000000000000000000010000000000000000000000000000000000000000000000000000000000000001",
        "nonce": "0x6",
        "chainId": "0x82"
      },
      "additionalContracts": [],
      "isFixedGasLimit": false
    }
  ],
  "receipts": [
    {
      "status": "0x1",
      "cumulativeGasUsed": "0xdd4d3",
      "logs": [
        {
          "address": "0x3b284ddcf13fbac389646c888c3dc669c00914be",
          "topics": [
            "0xa9f6e6144a80408b3df65a073af7832dc126e06e3ace724934f66bc1e1e6c711"
          ],
          "data": "0x000000000000000000000000078d782b760474a361dda0af3839290b0ef57ad60000000000000000000000000000000000000000000000000000000000000001",
          "blockHash": "0x867e1da19fe267e65774fb6b02bd2ca670e4978eac7446127c4c0a971da293eb",
          "blockNumber": "0x1af220c",
          "blockTimestamp": "0x68d841d3",
          "transactionHash": "0xabe944f748c181d72208e3a7fe99badd293fd719372cc065946f6f3a1a2999a0",
          "transactionIndex": "0x6",
          "logIndex": "0x4",
          "removed": false
        }
      ],
      "logsBloom": "0x00010000000000000000000000000000000000000000000000000000000000001000000000000000000000000000000000000000000000001000000000000000000000000000000000000000000000000000000000000000000000000000000000000000000000000000000000000000000000000000000000000000000000000000000000000000000000000000008000000000000000000000000000000000000000000000000000000000000000004000000000000000000000000000000000000000000000000000000000000000000000000000000000000000000000000000000000000000000000000000000000000000000000000000000000000002",
      "type": "0x2",
      "transactionHash": "0xabe944f748c181d72208e3a7fe99badd293fd719372cc065946f6f3a1a2999a0",
      "transactionIndex": "0x6",
      "blockHash": "0x867e1da19fe267e65774fb6b02bd2ca670e4978eac7446127c4c0a971da293eb",
      "blockNumber": "0x1af220c",
      "gasUsed": "0xbcce",
      "effectiveGasPrice": "0xf0e",
      "from": "0x0d5941e6366db6ea8bcd518c9e9dc0c1c84ecd84",
      "to": "0x3b284ddcf13fbac389646c888c3dc669c00914be",
      "contractAddress": null,
      "l1BaseFeeScalar": "0x7d0",
      "l1BlobBaseFee": "0x1",
      "l1BlobBaseFeeScalar": "0xdbba0",
      "l1Fee": "0x1f141eb0",
      "l1GasPrice": "0x9b6497b",
      "l1GasUsed": "0x640"
    },
    {
      "status": "0x1",
      "cumulativeGasUsed": "0xe91a1",
      "logs": [
        {
          "address": "0x3b284ddcf13fbac389646c888c3dc669c00914be",
          "topics": [
            "0xa9f6e6144a80408b3df65a073af7832dc126e06e3ace724934f66bc1e1e6c711"
          ],
          "data": "0x0000000000000000000000009151434b16b9763660705744891fa906f660ecc50000000000000000000000000000000000000000000000000000000000000001",
          "blockHash": "0x867e1da19fe267e65774fb6b02bd2ca670e4978eac7446127c4c0a971da293eb",
          "blockNumber": "0x1af220c",
          "blockTimestamp": "0x68d841d3",
          "transactionHash": "0x497283084b5625074c9a50b7149e7af1e25468bf69ff7b7281bfba7b66713b6e",
          "transactionIndex": "0x7",
          "logIndex": "0x5",
          "removed": false
        }
      ],
      "logsBloom": "0x00010000000000000000000000000000000000000000000000000000000000001000000000000000000000000000000000000000000000001000000000000000000000000000000000000000000000000000000000000000000000000000000000000000000000000000000000000000000000000000000000000000000000000000000000000000000000000000008000000000000000000000000000000000000000000000000000000000000000004000000000000000000000000000000000000000000000000000000000000000000000000000000000000000000000000000000000000000000000000000000000000000000000000000000000000002",
      "type": "0x2",
      "transactionHash": "0x497283084b5625074c9a50b7149e7af1e25468bf69ff7b7281bfba7b66713b6e",
      "transactionIndex": "0x7",
      "blockHash": "0x867e1da19fe267e65774fb6b02bd2ca670e4978eac7446127c4c0a971da293eb",
      "blockNumber": "0x1af220c",
      "gasUsed": "0xbcce",
      "effectiveGasPrice": "0xf0e",
      "from": "0x0d5941e6366db6ea8bcd518c9e9dc0c1c84ecd84",
      "to": "0x3b284ddcf13fbac389646c888c3dc669c00914be",
      "contractAddress": null,
      "l1BaseFeeScalar": "0x7d0",
      "l1BlobBaseFee": "0x1",
      "l1BlobBaseFeeScalar": "0xdbba0",
      "l1Fee": "0x1f141eb0",
      "l1GasPrice": "0x9b6497b",
      "l1GasUsed": "0x640"
    },
    {
      "status": "0x1",
      "cumulativeGasUsed": "0xfbdd8",
      "logs": [
        {
          "address": "0x92d7074d3ae478f91d136a018fe8fa8ea53f0d17",
          "topics": [
            "0x4351eca17cfb635b191154118486453ff79799ff42f716691d63ba01a1139cb3",
            "0x00000000000000000000000038f4f3b6533de0023b9dcd04b02f93d36ad1f9f9"
          ],
          "data": "0x0000000000000000000000000000000000000000000000000000000000000001",
          "blockHash": "0x867e1da19fe267e65774fb6b02bd2ca670e4978eac7446127c4c0a971da293eb",
          "blockNumber": "0x1af220c",
          "blockTimestamp": "0x68d841d3",
          "transactionHash": "0x9dcddd10cedd7ded02123f0869917e603148c28979af7c2f322a344018b83835",
          "transactionIndex": "0x8",
          "logIndex": "0x6",
          "removed": false
        },
        {
          "address": "0x92d7074d3ae478f91d136a018fe8fa8ea53f0d17",
          "topics": [
            "0x4351eca17cfb635b191154118486453ff79799ff42f716691d63ba01a1139cb3",
            "0x00000000000000000000000089849b6e57e1c61e447257242bda97c70fa99b6b"
          ],
          "data": "0x0000000000000000000000000000000000000000000000000000000000000001",
          "blockHash": "0x867e1da19fe267e65774fb6b02bd2ca670e4978eac7446127c4c0a971da293eb",
          "blockNumber": "0x1af220c",
          "blockTimestamp": "0x68d841d3",
          "transactionHash": "0x9dcddd10cedd7ded02123f0869917e603148c28979af7c2f322a344018b83835",
          "transactionIndex": "0x8",
          "logIndex": "0x7",
          "removed": false
        }
      ],
      "logsBloom": "0x00000000000000000000000000000000000000000000000000000000000000000000000000000000000000000000000000000000000200000000000000000000000000010000000000000000008000000000000200000000000000000000000000000000000000000000000010000000000000000000000000000000000000000000000000000000000000000000000000000000000000000000000000000000000000000000000000000002000000000000000000000000000000000000000000000000000000000000000000000000000000000000000000004000020000000000000000000000000000000000000080002000000000100000000000001000",
      "type": "0x2",
      "transactionHash": "0x9dcddd10cedd7ded02123f0869917e603148c28979af7c2f322a344018b83835",
      "transactionIndex": "0x8",
      "blockHash": "0x867e1da19fe267e65774fb6b02bd2ca670e4978eac7446127c4c0a971da293eb",
      "blockNumber": "0x1af220c",
      "gasUsed": "0x12c37",
      "effectiveGasPrice": "0xf0e",
      "from": "0x0d5941e6366db6ea8bcd518c9e9dc0c1c84ecd84",
      "to": "0x92d7074d3ae478f91d136a018fe8fa8ea53f0d17",
      "contractAddress": null,
      "l1BaseFeeScalar": "0x7d0",
      "l1BlobBaseFee": "0x1",
      "l1BlobBaseFeeScalar": "0xdbba0",
      "l1Fee": "0x28944c3a",
      "l1GasPrice": "0x9b6497b",
      "l1GasUsed": "0x829"
    },
    {
      "status": "0x1",
      "cumulativeGasUsed": "0x10ea0f",
      "logs": [
        {
          "address": "0xcfe7f11016055a00a3fd0dca0d642e9538cdc490",
          "topics": [
            "0x4351eca17cfb635b191154118486453ff79799ff42f716691d63ba01a1139cb3",
            "0x0000000000000000000000006eae95ee783e4d862867c4e0e4c3f4b95aa682ba"
          ],
          "data": "0x0000000000000000000000000000000000000000000000000000000000000001",
          "blockHash": "0x867e1da19fe267e65774fb6b02bd2ca670e4978eac7446127c4c0a971da293eb",
          "blockNumber": "0x1af220c",
          "blockTimestamp": "0x68d841d3",
          "transactionHash": "0x67d3be2e03996e8c6cfb60c3591f4a483711c61ecba0b59f0ed63fd390b6933f",
          "transactionIndex": "0x9",
          "logIndex": "0x8",
          "removed": false
        },
        {
          "address": "0xcfe7f11016055a00a3fd0dca0d642e9538cdc490",
          "topics": [
            "0x4351eca17cfb635b191154118486453ff79799ff42f716691d63ba01a1139cb3",
            "0x000000000000000000000000d49181c522ecdb265f0d9c175cf26fface64ead3"
          ],
          "data": "0x0000000000000000000000000000000000000000000000000000000000000001",
          "blockHash": "0x867e1da19fe267e65774fb6b02bd2ca670e4978eac7446127c4c0a971da293eb",
          "blockNumber": "0x1af220c",
          "blockTimestamp": "0x68d841d3",
          "transactionHash": "0x67d3be2e03996e8c6cfb60c3591f4a483711c61ecba0b59f0ed63fd390b6933f",
          "transactionIndex": "0x9",
          "logIndex": "0x9",
          "removed": false
        }
      ],
      "logsBloom": "0x00000000000200000000000000000000000000000080000000000000000000000000000000000000002000000000000000000000000000000000000000000000000000000000010000000000000000000000000000000000000000000000000000000000000000000000100010000000000000000000000000000000000000000000000000000000000000000000000000000000000000000000000000000000000000000000000000000000000000000000010000000000000000000000000000000000000000000000000000000000000000000000028000000000020000000000000000000000000000000000000080000000000000000000100000000000",
      "type": "0x2",
      "transactionHash": "0x67d3be2e03996e8c6cfb60c3591f4a483711c61ecba0b59f0ed63fd390b6933f",
      "transactionIndex": "0x9",
      "blockHash": "0x867e1da19fe267e65774fb6b02bd2ca670e4978eac7446127c4c0a971da293eb",
      "blockNumber": "0x1af220c",
      "gasUsed": "0x12c37",
      "effectiveGasPrice": "0xf0e",
      "from": "0x0d5941e6366db6ea8bcd518c9e9dc0c1c84ecd84",
      "to": "0xcfe7f11016055a00a3fd0dca0d642e9538cdc490",
      "contractAddress": null,
      "l1BaseFeeScalar": "0x7d0",
      "l1BlobBaseFee": "0x1",
      "l1BlobBaseFeeScalar": "0xdbba0",
      "l1Fee": "0x28944c3a",
      "l1GasPrice": "0x9b6497b",
      "l1GasUsed": "0x829"
    }
  ],
  "libraries": [],
  "pending": [],
  "returns": {},
  "timestamp": 1759003091828,
  "chain": 130,
  "commit": "02531dd"
}