{
  "transactions": [
    {
      "hash": "0x0f4cca3dde12653ae7dad5536c6e4fe61a7d3f25676bbf09347f5c8d11e3b2c3",
      "transactionType": "CALL",
      "contractName": null,
      "contractAddress": "0x08ac0de71fb42a9119e7e4c7105d0740901af369",
      "function": "setAllowedToken(address,bool)",
      "arguments": [
        "0xaf88d065e77c8cC2239327C5EDb3A432268e5831",
        "true"
      ],
      "transaction": {
        "from": "0x0d5941e6366db6ea8bcd518c9e9dc0c1c84ecd84",
        "to": "0x08ac0de71fb42a9119e7e4c7105d0740901af369",
        "gas": "0x10118",
        "value": "0x0",
        "input": "0x8aaa2284000000000000000000000000af88d065e77c8cc2239327c5edb3a432268e58310000000000000000000000000000000000000000000000000000000000000001",
        "nonce": "0xc",
        "chainId": "0xa4b1"
      },
      "additionalContracts": [],
      "isFixedGasLimit": false
    },
    {
      "hash": "0xd9ab24abcd92a93f941b123b0bceacf45ffef77e44a99f907b1ba4eac4573cba",
      "transactionType": "CALL",
      "contractName": null,
      "contractAddress": "0x08ac0de71fb42a9119e7e4c7105d0740901af369",
      "function": "setAllowedToken(address,bool)",
      "arguments": [
        "0x82aF49447D8a07e3bd95BD0d56f35241523fBab1",
        "true"
      ],
      "transaction": {
        "from": "0x0d5941e6366db6ea8bcd518c9e9dc0c1c84ecd84",
        "to": "0x08ac0de71fb42a9119e7e4c7105d0740901af369",
        "gas": "0x10118",
        "value": "0x0",
        "input": "0x8aaa228400000000000000000000000082af49447d8a07e3bd95bd0d56f35241523fbab10000000000000000000000000000000000000000000000000000000000000001",
        "nonce": "0xd",
        "chainId": "0xa4b1"
      },
      "additionalContracts": [],
      "isFixedGasLimit": false
    },
    {
      "hash": "0x86affc1ec4995ef66a1346c075acc079af49e86a40585aada5a0f0f963a53675",
      "transactionType": "CALL",
      "contractName": null,
      "contractAddress": "0x18080a79bdf5f9ecf48e107a349bc889e10eb467",
      "function": "setAllowedVault(address,bool)",
      "arguments": [
        "0xa60643c90A542A95026C0F1dbdB0615fF42019Cf",
        "true"
      ],
      "transaction": {
        "from": "0x0d5941e6366db6ea8bcd518c9e9dc0c1c84ecd84",
        "to": "0x18080a79bdf5f9ecf48e107a349bc889e10eb467",
        "gas": "0x10145",
        "value": "0x0",
        "input": "0x6bbdc24b000000000000000000000000a60643c90a542a95026c0f1dbdb0615ff42019cf0000000000000000000000000000000000000000000000000000000000000001",
        "nonce": "0xe",
        "chainId": "0xa4b1"
      },
      "additionalContracts": [],
      "isFixedGasLimit": false
    },
    {
      "hash": "0x102446424c6889edaff0321beb2801bdc2e7a4b50440589a95bc6b1bc09e3afe",
      "transactionType": "CALL",
      "contractName": null,
      "contractAddress": "0xb087bc0e1bfd5e97747cb8b4cd2079fdedf05537",
      "function": "setMultipleVaults(address[],bool[])",
      "arguments": [
        "[0x6aFB8d3F6D4A34e9cB2f217317f4dc8e05Aa673b, 0x78E3E051D32157AACD550fBB78458762d8f7edFF]",
        "[true, true]"
      ],
      "transaction": {
        "from": "0x0d5941e6366db6ea8bcd518c9e9dc0c1c84ecd84",
        "to": "0xb087bc0e1bfd5e97747cb8b4cd2079fdedf05537",
        "gas": "0x199f3",
        "value": "0x0",
        "input": "0x067b95bc000000000000000000000000000000000000000000000000000000000000004000000000000000000000000000000000000000000000000000000000000000a000000000000000000000000000000000000000000000000000000000000000020000000000000000000000006afb8d3f6d4a34e9cb2f217317f4dc8e05aa673b00000000000000000000000078e3e051d32157aacd550fbb78458762d8f7edff000000000000000000000000000000000000000000000000000000000000000200000000000000000000000000000000000000000000000000000000000000010000000000000000000000000000000000000000000000000000000000000001",
        "nonce": "0xf",
        "chainId": "0xa4b1"
      },
      "additionalContracts": [],
      "isFixedGasLimit": false
    }
  ],
  "receipts": [
    {
      "status": "0x1",
      "cumulativeGasUsed": "0x51383",
      "logs": [
        {
          "address": "0x08ac0de71fb42a9119e7e4c7105d0740901af369",
          "topics": [
            "0xa9f6e6144a80408b3df65a073af7832dc126e06e3ace724934f66bc1e1e6c711"
          ],
          "data": "0x000000000000000000000000af88d065e77c8cc2239327c5edb3a432268e58310000000000000000000000000000000000000000000000000000000000000001",
          "blockHash": "0x8d41b3fdfe36c76c994e3e33bff5f48ee8a48b34452f2a90999cff3f623c5beb",
          "blockNumber": "0x16de436c",
          "transactionHash": "0x0f4cca3dde12653ae7dad5536c6e4fe61a7d3f25676bbf09347f5c8d11e3b2c3",
          "transactionIndex": "0x4",
          "logIndex": "0x2",
          "removed": false
        }
      ],
      "logsBloom": "0x00010000000000000000000000000000000000000000000000000000000000000200000000100000000000000000000000000000000000000000000000000000000000000000000000000000000000000000000000000000000000000000000000000000000000000000000000000000000000000000000000000000000000000000000000000000000000000000000000000000000000000000000000000000000000000000000000000000000000004000000000000000000000000000000000000000000000000000000000000000000000020000000000000000000000000000000000000000000000000000000000000000000000000000000000000002",
      "type": "0x2",
      "transactionHash": "0x0f4cca3dde12653ae7dad5536c6e4fe61a7d3f25676bbf09347f5c8d11e3b2c3",
      "transactionIndex": "0x4",
      "blockHash": "0x8d41b3fdfe36c76c994e3e33bff5f48ee8a48b34452f2a90999cff3f623c5beb",
      "blockNumber": "0x16de436c",
      "gasUsed": "0xc2c6",
      "effectiveGasPrice": "0x989680",
      "from": "0x0d5941e6366db6ea8bcd518c9e9dc0c1c84ecd84",
      "to": "0x08ac0de71fb42a9119e7e4c7105d0740901af369",
      "contractAddress": null,
      "gasUsedForL1": "0x5f8",
      "l1BlockNumber": "0x165eb3d",
      "timeboosted": false
    },
    {
      "status": "0x1",
      "cumulativeGasUsed": "0x9cc51",
      "logs": [
        {
          "address": "0x08ac0de71fb42a9119e7e4c7105d0740901af369",
          "topics": [
            "0xa9f6e6144a80408b3df65a073af7832dc126e06e3ace724934f66bc1e1e6c711"
          ],
          "data": "0x00000000000000000000000082af49447d8a07e3bd95bd0d56f35241523fbab10000000000000000000000000000000000000000000000000000000000000001",
          "blockHash": "0x0c3ca2443cf5bdc901538578dcb6f6ef1a128ecb87a4e631f4a1681641a9f16d",
          "blockNumber": "0x16de4376",
          "transactionHash": "0xd9ab24abcd92a93f941b123b0bceacf45ffef77e44a99f907b1ba4eac4573cba",
          "transactionIndex": "0x5",
          "logIndex": "0xa",
          "removed": false
        }
      ],
      "logsBloom": "0x00010000000000000000000000000000000000000000000000000000000000000200000000100000000000000000000000000000000000000000000000000000000000000000000000000000000000000000000000000000000000000000000000000000000000000000000000000000000000000000000000000000000000000000000000000000000000000000000000000000000000000000000000000000000000000000000000000000000000004000000000000000000000000000000000000000000000000000000000000000000000020000000000000000000000000000000000000000000000000000000000000000000000000000000000000002",
      "type": "0x2",
      "transactionHash": "0xd9ab24abcd92a93f941b123b0bceacf45ffef77e44a99f907b1ba4eac4573cba",
      "transactionIndex": "0x5",
      "blockHash": "0x0c3ca2443cf5bdc901538578dcb6f6ef1a128ecb87a4e631f4a1681641a9f16d",
      "blockNumber": "0x16de4376",
      "gasUsed": "0xc2c6",
      "effectiveGasPrice": "0x989680",
      "from": "0x0d5941e6366db6ea8bcd518c9e9dc0c1c84ecd84",
      "to": "0x08ac0de71fb42a9119e7e4c7105d0740901af369",
      "contractAddress": null,
      "gasUsedForL1": "0x5f8",
      "l1BlockNumber": "0x165eb3d",
      "timeboosted": false
    },
    {
      "status": "0x1",
      "cumulativeGasUsed": "0x5c03c",
      "logs": [
        {
          "address": "0x18080a79bdf5f9ecf48e107a349bc889e10eb467",
          "topics": [
            "0x4351eca17cfb635b191154118486453ff79799ff42f716691d63ba01a1139cb3",
            "0x000000000000000000000000a60643c90a542a95026c0f1dbdb0615ff42019cf"
          ],
          "data": "0x0000000000000000000000000000000000000000000000000000000000000001",
          "blockHash": "0x28d89cfdcc6dbf62921bd088ece4f57ac043a023ddf2d0610b7dd36457abd2d7",
          "blockNumber": "0x16de437f",
          "transactionHash": "0x86affc1ec4995ef66a1346c075acc079af49e86a40585aada5a0f0f963a53675",
          "transactionIndex": "0x4",
          "logIndex": "0x4",
          "removed": false
        }
      ],
      "logsBloom": "0x00000000000000000000000000000000000000008000000000000000000000000000000000000000000000000000000000000000000400000000000000000000000000000000000000000000000000000000000000000000000000000000000000000000000000000000000010000000000000000000000000000000000000000000000000000000000000000000000000000000000000000000000000000400000000000001000000000000000000000000000000000000000000000000000000000000000000000001000000000000000002000000000000000000020000000000000000000000000000000000000080000000000000000000000000000000",
      "type": "0x2",
      "transactionHash": "0x86affc1ec4995ef66a1346c075acc079af49e86a40585aada5a0f0f963a53675",
      "transactionIndex": "0x4",
      "blockHash": "0x28d89cfdcc6dbf62921bd088ece4f57ac043a023ddf2d0610b7dd36457abd2d7",
      "blockNumber": "0x16de437f",
      "gasUsed": "0xc2e9",
      "effectiveGasPrice": "0x989680",
      "from": "0x0d5941e6366db6ea8bcd518c9e9dc0c1c84ecd84",
      "to": "0x18080a79bdf5f9ecf48e107a349bc889e10eb467",
      "contractAddress": null,
      "gasUsedForL1": "0x5f8",
      "l1BlockNumber": "0x165eb3d",
      "timeboosted": false
    },
    {
      "status": "0x1",
      "cumulativeGasUsed": "0x31bf7d",
      "logs": [
        {
          "address": "0xb087bc0e1bfd5e97747cb8b4cd2079fdedf05537",
          "topics": [
            "0x4351eca17cfb635b191154118486453ff79799ff42f716691d63ba01a1139cb3",
            "0x0000000000000000000000006afb8d3f6d4a34e9cb2f217317f4dc8e05aa673b"
          ],
          "data": "0x0000000000000000000000000000000000000000000000000000000000000001",
          "blockHash": "0xc1217767c3bb9d72532d7af4ec4bed38ce20cb8a3ac621ebaa29077096d282a7",
          "blockNumber": "0x16de4388",
          "transactionHash": "0x102446424c6889edaff0321beb2801bdc2e7a4b50440589a95bc6b1bc09e3afe",
          "transactionIndex": "0x4",
          "logIndex": "0x0",
          "removed": false
        },
        {
          "address": "0xb087bc0e1bfd5e97747cb8b4cd2079fdedf05537",
          "topics": [
            "0x4351eca17cfb635b191154118486453ff79799ff42f716691d63ba01a1139cb3",
            "0x00000000000000000000000078e3e051d32157aacd550fbb78458762d8f7edff"
          ],
          "data": "0x0000000000000000000000000000000000000000000000000000000000000001",
          "blockHash": "0xc1217767c3bb9d72532d7af4ec4bed38ce20cb8a3ac621ebaa29077096d282a7",
          "blockNumber": "0x16de4388",
          "transactionHash": "0x102446424c6889edaff0321beb2801bdc2e7a4b50440589a95bc6b1bc09e3afe",
          "transactionIndex": "0x4",
          "logIndex": "0x1",
          "removed": false
        }
      ],
      "logsBloom": "0x00000000000000000000000000000000000000000000000010000000000000000000000040000000000000000000000000000000000002000000000000000008000000000000000000000000000000000000000000000000000000000000000000000000000000000000000010000000000000000000000000000000000000000000000000000000000000000000000000000000000000000000000000000000000000000402000000000000000000000000000000000000000000000000000000000000000000000000000000000000000000000008000000000000020000000000000000000000000000000000000080000008000001000000000000000000",
      "type": "0x2",
      "transactionHash": "0x102446424c6889edaff0321beb2801bdc2e7a4b50440589a95bc6b1bc09e3afe",
      "transactionIndex": "0x4",
      "blockHash": "0xc1217767c3bb9d72532d7af4ec4bed38ce20cb8a3ac621ebaa29077096d282a7",
      "blockNumber": "0x16de4388",
      "gasUsed": "0x135af",
      "effectiveGasPrice": "0x989680",
      "from": "0x0d5941e6366db6ea8bcd518c9e9dc0c1c84ecd84",
      "to": "0xb087bc0e1bfd5e97747cb8b4cd2079fdedf05537",
      "contractAddress": null,
      "gasUsedForL1": "0x978",
      "l1BlockNumber": "0x165eb3d",
      "timeboosted": false
    }
  ],
  "libraries": [],
  "pending": [],
  "returns": {},
  "timestamp": 1759003063713,
  "chain": 42161,
  "commit": "02531dd"
}